{
  "_format": "hh-sol-artifact-1",
  "contractName": "FHEIdentityVault",
  "sourceName": "contracts/src/FHEIdentityVault.sol",
  "abi": [
    {
      "inputs": [],
      "name": "IdentityAlreadyExists",
      "type": "error"
    },
    {
      "inputs": [],
      "name": "IdentityNotFound",
      "type": "error"
    },
    {
      "inputs": [],
      "name": "InvalidInput",
      "type": "error"
    },
    {
      "inputs": [],
      "name": "Unauthorized",
      "type": "error"
    },
    {
      "anonymous": false,
      "inputs": [
        {
          "indexed": true,
          "internalType": "address",
          "name": "owner",
          "type": "address"
        },
        {
          "indexed": false,
          "internalType": "uint32",
          "name": "domicile",
          "type": "uint32"
        },
        {
          "indexed": false,
          "internalType": "uint16",
          "name": "tier",
          "type": "uint16"
        },
        {
          "indexed": false,
          "internalType": "uint64",
          "name": "timestamp",
          "type": "uint64"
        }
      ],
      "name": "IdentityCreated",
      "type": "event"
    },
    {
      "anonymous": false,
      "inputs": [
        {
          "indexed": true,
          "internalType": "address",
          "name": "owner",
          "type": "address"
        },
        {
          "indexed": false,
          "internalType": "uint64",
          "name": "timestamp",
          "type": "uint64"
        }
      ],
      "name": "IdentityUpdated",
      "type": "event"
    },
    {
      "inputs": [],
      "name": "calculateAccessLevel",
      "outputs": [
        {
          "internalType": "euint8",
          "name": "",
          "type": "bytes32"
        }
      ],
      "stateMutability": "nonpayable",
      "type": "function"
    },
    {
      "inputs": [
        {
          "internalType": "externalEuint64",
          "name": "encryptedNetWorth",
          "type": "bytes32"
        },
        {
          "internalType": "bytes",
          "name": "proof",
          "type": "bytes"
        },
        {
          "internalType": "uint32",
          "name": "domicile",
          "type": "uint32"
        },
        {
          "internalType": "uint16",
          "name": "tier",
          "type": "uint16"
        },
        {
          "internalType": "uint8",
          "name": "pep",
          "type": "uint8"
        },
        {
          "internalType": "uint8",
          "name": "watchlist",
          "type": "uint8"
        },
        {
          "internalType": "uint8",
          "name": "riskScore",
          "type": "uint8"
        }
      ],
      "name": "createIdentity",
      "outputs": [],
      "stateMutability": "nonpayable",
      "type": "function"
    },
    {
      "inputs": [],
      "name": "getEncryptedNetWorth",
      "outputs": [
        {
          "internalType": "euint64",
          "name": "",
          "type": "bytes32"
        }
      ],
      "stateMutability": "view",
      "type": "function"
    },
    {
      "inputs": [
        {
          "internalType": "address",
          "name": "user",
          "type": "address"
        }
      ],
      "name": "getPlaintextData",
      "outputs": [
        {
          "internalType": "uint32",
          "name": "domicile",
          "type": "uint32"
        },
        {
          "internalType": "uint16",
          "name": "tier",
          "type": "uint16"
        },
        {
          "internalType": "uint8",
          "name": "pep",
          "type": "uint8"
        },
        {
          "internalType": "uint8",
          "name": "watchlist",
          "type": "uint8"
        },
        {
          "internalType": "uint8",
          "name": "riskScore",
          "type": "uint8"
        },
        {
          "internalType": "uint64",
          "name": "createdAt",
          "type": "uint64"
        },
        {
          "internalType": "uint64",
          "name": "updatedAt",
          "type": "uint64"
        }
      ],
      "stateMutability": "view",
      "type": "function"
    },
    {
      "inputs": [
        {
          "internalType": "address",
          "name": "user",
          "type": "address"
        }
      ],
      "name": "hasIdentity",
      "outputs": [
        {
          "internalType": "bool",
          "name": "",
          "type": "bool"
        }
      ],
      "stateMutability": "view",
      "type": "function"
    },
    {
      "inputs": [
        {
          "internalType": "address",
          "name": "",
          "type": "address"
        }
      ],
      "name": "identities",
      "outputs": [
        {
          "internalType": "address",
          "name": "owner",
          "type": "address"
        },
        {
          "internalType": "euint64",
          "name": "encryptedNetWorth",
          "type": "bytes32"
        },
        {
          "internalType": "uint32",
          "name": "domicile",
          "type": "uint32"
        },
        {
          "internalType": "uint16",
          "name": "tier",
          "type": "uint16"
        },
        {
          "internalType": "uint8",
          "name": "pep",
          "type": "uint8"
        },
        {
          "internalType": "uint8",
          "name": "watchlist",
          "type": "uint8"
        },
        {
          "internalType": "uint8",
          "name": "riskScore",
          "type": "uint8"
        },
        {
          "internalType": "uint64",
          "name": "createdAt",
          "type": "uint64"
        },
        {
          "internalType": "uint64",
          "name": "updatedAt",
          "type": "uint64"
        },
        {
          "internalType": "bool",
          "name": "exists",
          "type": "bool"
        }
      ],
      "stateMutability": "view",
      "type": "function"
    },
    {
      "inputs": [],
      "name": "protocolId",
      "outputs": [
        {
          "internalType": "uint256",
          "name": "",
          "type": "uint256"
        }
      ],
      "stateMutability": "pure",
      "type": "function"
    },
    {
      "inputs": [],
      "name": "totalIdentities",
      "outputs": [
        {
          "internalType": "uint256",
          "name": "",
          "type": "uint256"
        }
      ],
      "stateMutability": "view",
      "type": "function"
    },
    {
      "inputs": [
        {
          "internalType": "externalEuint64",
          "name": "encryptedNetWorth",
          "type": "bytes32"
        },
        {
          "internalType": "bytes",
          "name": "proof",
          "type": "bytes"
        },
        {
          "internalType": "uint32",
          "name": "domicile",
          "type": "uint32"
        },
        {
          "internalType": "uint16",
          "name": "tier",
          "type": "uint16"
        },
        {
          "internalType": "uint8",
          "name": "pep",
          "type": "uint8"
        },
        {
          "internalType": "uint8",
          "name": "watchlist",
          "type": "uint8"
        },
        {
          "internalType": "uint8",
          "name": "riskScore",
          "type": "uint8"
        }
      ],
      "name": "updateIdentity",
      "outputs": [],
      "stateMutability": "nonpayable",
      "type": "function"
    }
  ],
  "bytecode": "0x608060405234610154575f6060610014610158565b828152826020820152826040820152015261002d610158565b606073687820221192c5b662b25367f70076a37bc79b6c9182815273848b0066793bcc60346da1f49049357399b8d59580602083015273a02cda4ca3a71d7c46997716f4283aa851c2881291826040820152731364cbbf2cdf5032c47d8226a6f6fbd2afcdacac938491015260018060a01b0319937f9e7b61f58c47dc699ac88507c4f5bb9f121c03808c5676a8078fe583e464970090858254161790557f9e7b61f58c47dc699ac88507c4f5bb9f121c03808c5676a8078fe583e464970190848254161790557f9e7b61f58c47dc699ac88507c4f5bb9f121c03808c5676a8078fe583e464970290838254161790557f9e7b61f58c47dc699ac88507c4f5bb9f121c03808c5676a8078fe583e464970391825416179055604051611285908161018c8239f35b5f80fd5b60405190608082016001600160401b0381118382101761017757604052565b634e487b7160e01b5f52604160045260245ffdfe6080806040526004361015610012575f80fd5b5f3560e01c9081630f48e1c91461070e57508063237f1a21146106c857806336f7a7381461068e57806361c8ac91146105ee578063ba1b00431461045a578063da1f12ab1461043e578063f55fec491461015a578063f5c5987b1461013d5763f653b81e1461007f575f80fd5b34610139576020366003190112610139576004356001600160a01b038181169182900361013957610140915f525f60205260ff60405f209182541691600260018201549101549067ffffffffffffffff90604051948552602085015263ffffffff8216604085015261ffff8260201c166060850152828260301c166080850152828260381c1660a0850152828260401c1660c0850152808260481c1660e08501528160881c1661010084015260c81c161515610120820152f35b5f80fd5b34610139575f366003190112610139576020600154604051908152f35b346101395761016836610d24565b939690929695919495335f525f60205260ff600260405f20015460c81c1661042c5763ffffffff16966064881161041a5761ffff1694600a861161041a5760ff16926001841161041a5760ff16936005851161041a5760ff16956064871161041a576101df926101d9913691610df1565b90610fd2565b9067ffffffffffffffff42169460405161014081019181831067ffffffffffffffff841117610406576103a9956101209360405233835285602084015260408301948a8652886060850152608084015260a083015260c08201528660e082015286610100820152600182820152335f525f60205263ffffffff600260405f2060018060a01b038451166bffffffffffffffffffffffff60a01b825416178155602084015160018201550193511663ffffffff198454161783556102c361ffff606083015116849065ffff0000000082549160201b169065ffff000000001916179055565b6080810151835466ff000000000000191660309190911b66ff0000000000001617835560a0810151835460ff60381b191660389190911b60ff60381b1617835560c0810151835460ff60401b191660409190911b60ff60401b1617835560e0810151835461010083015178ffffffffffffffffffffffffffffffff0000000000000000001990911660489290921b70ffffffffffffffff000000000000000000169190911760889190911b67ffffffffffffffff60881b161783550151815460ff60c81b191690151560c81b60ff60c81b161790556103a233826111b3565b30906111b3565b6001545f1981146103f257600101600155604051928352602083015260408201527f7701c8706cd7980a8ba2a98604cd738d2424199f4f2f5c8fe2eb9555accaf25e60603392a2005b634e487b7160e01b5f52601160045260245ffd5b634e487b7160e01b5f52604160045260245ffd5b60405163b4fa3fb360e01b8152600490fd5b6040516335a081ab60e11b8152600490fd5b34610139575f3660031901126101395760206040516127118152f35b346101395761046836610d24565b9493969592919092335f525f60205260405f2092600284019860ff8a5460c81c16156105dc5763ffffffff166064811161041a57600a61ffff83161161041a57600160ff85161161041a57600560ff87161161041a57606460ff89161161041a576104fa6001610546966104eb61057a9c6101d9610526986105609d3691610df1565b91829101556103a233826111b3565b895465ffff000000001990911665ffffffffffff199091161760209190911b65ffff0000000016178855565b865466ff000000000000191660309190911b66ff00000000000016178655565b845460ff60381b191660389190911b60ff60381b16178455565b825460ff60401b191660409190911b60ff60401b16178255565b805467ffffffffffffffff60881b191642608881901b67ffffffffffffffff60881b169190911790915567ffffffffffffffff166040519081527fcd5d131bbc6efef8b5b10c8b8e1d354979185520a0627169756983dd744f26bf60203392a2005b6040516369e0942b60e11b8152600490fd5b34610139576020366003190112610139576004356001600160a01b03811690819003610139575f525f602052600260405f20015460ff8160c81c16156105dc5760e09067ffffffffffffffff6040519163ffffffff8116835261ffff8160201c16602084015260ff8160301c16604084015260ff8160381c16606084015260ff8160401c166080840152818160481c1660a084015260881c1660c0820152f35b34610139575f36600319011261013957335f525f60205260405f2060ff600282015460c81c16156105dc5760016020910154604051908152f35b34610139576020366003190112610139576004356001600160a01b03811690819003610139575f525f602052602060ff600260405f20015460c81c166040519015158152f35b34610139575f36600319011261013957335f525f60205260405f20600281019160ff835460c81c1615610d15575060010180545f8051602061123083398151915254604051639cd07acb60e01b8152620f42406004820152600560248201529190602090839060449082905f906001600160a01b03165af1908115610b00575f91610cdf575b61079e9250610e37565b905f8154602060018060a01b035f805160206112308339815191525416604460405180958193639cd07acb60e01b8352620186a06004840152600560248401525af1908115610b00575f91610ca9575b6107f89250610e37565b9054925f602060018060a01b035f805160206112308339815191525416604460405180948193639cd07acb60e01b83526127106004840152600560248401525af1908115610b00575f91610c77575b50610853905f95610e37565b905492600561ffff8560201c1610159384610c67575b84610c57575b84610c40575b509061088d61089d6108936108a39461088d88610eea565b90610f4e565b9461088d87610eea565b94610eea565b91602060018060a01b035f805160206112308339815191525416604460405180978193639cd07acb60e01b835260036004840152600260248401525af1938415610b00575f94610c0c575b505f8051602061123083398151915254604051639cd07acb60e01b8152600260048201819052602482015290602090829060449082905f906001600160a01b03165af18015610b00575f90610bda575b5f8051602061123083398151915254604051639cd07acb60e01b815260016004820152600260248201529250602090839060449082905f906001600160a01b03165af1918215610b00575f92610ba6575b505f8051602061123083398151915254604051639cd07acb60e01b81525f60048201819052600260248301529091602091839160449183916001600160a01b03165af18015610b00575f90610b73575b60209150606460018060a01b035f805160206112308339815191525416945f6040519687948593637702dcff60e01b9c8d86526004860152602485015260448401525af1918215610b00575f92610b3e575b506064602092935f60018060a01b035f80516020611230833981519152541660405196879586948b86526004860152602485015260448401525af1908115610b00575f91610b0b575b506020925f60649260018060a01b035f80516020611230833981519152541690604051978896879586526004860152602485015260448401525af18015610b00575f90610acd575b602090604051908152f35b506020813d602011610af8575b81610ae760209383610dcf565b810103126101395760209051610ac2565b3d9150610ada565b6040513d5f823e3d90fd5b90506020813d602011610b36575b81610b2660209383610dcf565b8101031261013957516020610a7a565b3d9150610b19565b91506020823d602011610b6b575b81610b5960209383610dcf565b81010312610139579051906064610a31565b3d9150610b4c565b506020813d602011610b9e575b81610b8d60209383610dcf565b8101031261013957602090516109df565b3d9150610b80565b9091506020813d602011610bd2575b81610bc260209383610dcf565b810103126101395751908661098f565b3d9150610bb5565b506020813d602011610c04575b81610bf460209383610dcf565b81010312610139575f905161093e565b3d9150610be7565b9093506020813d602011610c38575b81610c2860209383610dcf565b81010312610139575192846108ee565b3d9150610c1b565b601e60409190911c60ff161115935061088d610875565b935060ff8460381c16159361086f565b935060ff8460301c161593610869565b90506020813d602011610ca1575b81610c9260209383610dcf565b8101031261013957515f610847565b3d9150610c85565b90506020823d602011610cd7575b81610cc460209383610dcf565b81010312610139576107f89151906107ee565b3d9150610cb7565b90506020823d602011610d0d575b81610cfa60209383610dcf565b810103126101395761079e915190610794565b3d9150610ced565b6369e0942b60e11b8152600490fd5b60e0600319820112610139576004359160243567ffffffffffffffff928382116101395780602383011215610139578160040135938411610139576024848301011161013957602401919060443563ffffffff81168103610139579060643561ffff81168103610139579060843560ff81168103610139579060a43560ff81168103610139579060c43560ff811681036101395790565b67ffffffffffffffff811161040657604052565b90601f8019910116810190811067ffffffffffffffff82111761040657604052565b92919267ffffffffffffffff82116104065760405191610e1b601f8201601f191660200184610dcf565b829481845281830111610139578281602093845f960137010152565b908115610eda575b8015610ec8575b602090606460018060a01b035f805160206112308339815191525416935f6040519586948593631391547f60e01b8552600485015260248401528160448401525af1908115610b00575f91610e99575090565b90506020813d602011610ec0575b81610eb460209383610dcf565b81010312610139575190565b3d9150610ea7565b506020610ed3611114565b9050610e46565b9050610ee4611114565b90610e3f565b15610f485760015b5f8051602061123083398151915254604051639cd07acb60e01b815260ff9290921660048301525f6024830181905260209183916044918391906001600160a01b03165af1908115610b00575f91610e99575090565b5f610ef2565b908115610fc2575b8015610fb0575b602090606460018060a01b035f805160206112308339815191525416935f604051958694859363d99882d560e01b8552600485015260248401528160448401525af1908115610b00575f91610e99575090565b506020610fbb611167565b9050610f5d565b9050610fcc611167565b90610f56565b5f805160206112308339815191525460405163196d0b9b60e01b815260048101929092523360248301526080604483015282516084830181905291926001600160a01b03929183169184915f5b8281106110fc57505091815f60a4828683836020998401015260056064830152601f801991011681010301925af1918215610b00575f926110c8575b507f9e7b61f58c47dc699ac88507c4f5bb9f121c03808c5676a8078fe583e46497005416803b1561013957604051630f8e573b60e21b815260048101839052336024820152905f908290604490829084905af18015610b00576110bc575090565b6110c590610dbb565b90565b9091506020813d6020116110f4575b816110e460209383610dcf565b810103126101395751905f61105b565b3d91506110d7565b602082820181015160a489840101528794500161101f565b5f8051602061123083398151915254604051639cd07acb60e01b81525f60048201819052600560248301529091602091839160449183916001600160a01b03165af1908115610b00575f91610e99575090565b5f602060018060a01b035f805160206112308339815191525416604460405180948193639cd07acb60e01b83528160048401528160248401525af1908115610b00575f91610e99575090565b7f9e7b61f58c47dc699ac88507c4f5bb9f121c03808c5676a8078fe583e4649700546001600160a01b031691823b1561013957604051635ca4b5b160e11b815260048101929092526001600160a01b03166024820152905f908290604490829084905af18015610b00576112245750565b61122d90610dbb565b56fe9e7b61f58c47dc699ac88507c4f5bb9f121c03808c5676a8078fe583e4649701a2646970667358221220f33735f523182d9b8d549e59f6881cc8475d2eb49406e294f380f9a8a79e6c8964736f6c63430008180033",
  "linkReferences": {},
  "deployedLinkReferences": {}
}