{
  "_format": "hh-sol-artifact-1",
  "contractName": "FHEIdentityVault",
  "sourceName": "src/FHEIdentityVault.sol",
  "abi": [
    {
      "inputs": [],
      "name": "IdentityAlreadyExists",
      "type": "error"
    },
    {
      "inputs": [],
      "name": "IdentityNotFound",
      "type": "error"
    },
    {
      "inputs": [],
      "name": "InvalidInput",
      "type": "error"
    },
    {
      "inputs": [],
      "name": "Unauthorized",
      "type": "error"
    },
    {
      "anonymous": false,
      "inputs": [
        {
          "indexed": true,
          "internalType": "address",
          "name": "owner",
          "type": "address"
        },
        {
          "indexed": false,
          "internalType": "uint32",
          "name": "domicile",
          "type": "uint32"
        },
        {
          "indexed": false,
          "internalType": "uint16",
          "name": "tier",
          "type": "uint16"
        },
        {
          "indexed": false,
          "internalType": "uint64",
          "name": "timestamp",
          "type": "uint64"
        }
      ],
      "name": "IdentityCreated",
      "type": "event"
    },
    {
      "anonymous": false,
      "inputs": [
        {
          "indexed": true,
          "internalType": "address",
          "name": "owner",
          "type": "address"
        },
        {
          "indexed": false,
          "internalType": "uint64",
          "name": "timestamp",
          "type": "uint64"
        }
      ],
      "name": "IdentityUpdated",
      "type": "event"
    },
    {
      "inputs": [],
      "name": "calculateAccessLevel",
      "outputs": [
        {
          "internalType": "euint8",
          "name": "",
          "type": "bytes32"
        }
      ],
      "stateMutability": "nonpayable",
      "type": "function"
    },
    {
      "inputs": [
        {
          "internalType": "externalEuint64",
          "name": "encryptedNetWorth",
          "type": "bytes32"
        },
        {
          "internalType": "bytes",
          "name": "proof",
          "type": "bytes"
        },
        {
          "internalType": "uint32",
          "name": "domicile",
          "type": "uint32"
        },
        {
          "internalType": "uint16",
          "name": "tier",
          "type": "uint16"
        },
        {
          "internalType": "uint8",
          "name": "pep",
          "type": "uint8"
        },
        {
          "internalType": "uint8",
          "name": "watchlist",
          "type": "uint8"
        },
        {
          "internalType": "uint8",
          "name": "riskScore",
          "type": "uint8"
        }
      ],
      "name": "createIdentity",
      "outputs": [],
      "stateMutability": "nonpayable",
      "type": "function"
    },
    {
      "inputs": [],
      "name": "getEncryptedNetWorth",
      "outputs": [
        {
          "internalType": "euint64",
          "name": "",
          "type": "bytes32"
        }
      ],
      "stateMutability": "view",
      "type": "function"
    },
    {
      "inputs": [
        {
          "internalType": "address",
          "name": "user",
          "type": "address"
        }
      ],
      "name": "getPlaintextData",
      "outputs": [
        {
          "internalType": "uint32",
          "name": "domicile",
          "type": "uint32"
        },
        {
          "internalType": "uint16",
          "name": "tier",
          "type": "uint16"
        },
        {
          "internalType": "uint8",
          "name": "pep",
          "type": "uint8"
        },
        {
          "internalType": "uint8",
          "name": "watchlist",
          "type": "uint8"
        },
        {
          "internalType": "uint8",
          "name": "riskScore",
          "type": "uint8"
        },
        {
          "internalType": "uint64",
          "name": "createdAt",
          "type": "uint64"
        },
        {
          "internalType": "uint64",
          "name": "updatedAt",
          "type": "uint64"
        }
      ],
      "stateMutability": "view",
      "type": "function"
    },
    {
      "inputs": [
        {
          "internalType": "address",
          "name": "user",
          "type": "address"
        }
      ],
      "name": "hasIdentity",
      "outputs": [
        {
          "internalType": "bool",
          "name": "",
          "type": "bool"
        }
      ],
      "stateMutability": "view",
      "type": "function"
    },
    {
      "inputs": [
        {
          "internalType": "address",
          "name": "",
          "type": "address"
        }
      ],
      "name": "identities",
      "outputs": [
        {
          "internalType": "address",
          "name": "owner",
          "type": "address"
        },
        {
          "internalType": "euint64",
          "name": "encryptedNetWorth",
          "type": "bytes32"
        },
        {
          "internalType": "uint32",
          "name": "domicile",
          "type": "uint32"
        },
        {
          "internalType": "uint16",
          "name": "tier",
          "type": "uint16"
        },
        {
          "internalType": "uint8",
          "name": "pep",
          "type": "uint8"
        },
        {
          "internalType": "uint8",
          "name": "watchlist",
          "type": "uint8"
        },
        {
          "internalType": "uint8",
          "name": "riskScore",
          "type": "uint8"
        },
        {
          "internalType": "uint64",
          "name": "createdAt",
          "type": "uint64"
        },
        {
          "internalType": "uint64",
          "name": "updatedAt",
          "type": "uint64"
        },
        {
          "internalType": "bool",
          "name": "exists",
          "type": "bool"
        }
      ],
      "stateMutability": "view",
      "type": "function"
    },
    {
      "inputs": [],
      "name": "protocolId",
      "outputs": [
        {
          "internalType": "uint256",
          "name": "",
          "type": "uint256"
        }
      ],
      "stateMutability": "pure",
      "type": "function"
    },
    {
      "inputs": [],
      "name": "totalIdentities",
      "outputs": [
        {
          "internalType": "uint256",
          "name": "",
          "type": "uint256"
        }
      ],
      "stateMutability": "view",
      "type": "function"
    },
    {
      "inputs": [
        {
          "internalType": "externalEuint64",
          "name": "encryptedNetWorth",
          "type": "bytes32"
        },
        {
          "internalType": "bytes",
          "name": "proof",
          "type": "bytes"
        },
        {
          "internalType": "uint32",
          "name": "domicile",
          "type": "uint32"
        },
        {
          "internalType": "uint16",
          "name": "tier",
          "type": "uint16"
        },
        {
          "internalType": "uint8",
          "name": "pep",
          "type": "uint8"
        },
        {
          "internalType": "uint8",
          "name": "watchlist",
          "type": "uint8"
        },
        {
          "internalType": "uint8",
          "name": "riskScore",
          "type": "uint8"
        }
      ],
      "name": "updateIdentity",
      "outputs": [],
      "stateMutability": "nonpayable",
      "type": "function"
    }
  ],
  "bytecode": "0x608060405234610194575f6060610014610198565b8281528260208201528260408201520152731364cbbf2cdf5032c47d8226a6f6fbd2afcdacac6060610044610198565b73687820221192c5b662b25367f70076a37bc79b6c815273848b0066793bcc60346da1f49049357399b8d595602082015273a02cda4ca3a71d7c46997716f4283aa851c288126040820152015273687820221192c5b662b25367f70076a37bc79b6c60018060a01b03195f51602061144c5f395f51905f525416175f51602061144c5f395f51905f525573848b0066793bcc60346da1f49049357399b8d59560018060a01b03195f51602061140c5f395f51905f525416175f51602061140c5f395f51905f525573a02cda4ca3a71d7c46997716f4283aa851c2881260018060a01b03195f51602061142c5f395f51905f525416175f51602061142c5f395f51905f5255731364cbbf2cdf5032c47d8226a6f6fbd2afcdacac60018060a01b03195f5160206113ec5f395f51905f525416175f5160206113ec5f395f51905f525560405161122090816101cc8239f35b5f80fd5b60405190608082016001600160401b038111838210176101b757604052565b634e487b7160e01b5f52604160045260245ffdfe60806040526004361015610011575f80fd5b5f3560e01c80630f48e1c914610712578063237f1a21146106cc57806336f7a7381461069257806361c8ac91146105f2578063ba1b004314610454578063da1f12ab14610438578063f55fec4914610162578063f5c5987b146101455763f653b81e1461007c575f80fd5b34610141576020366003190112610141576004356001600160a01b03811690819003610141575f525f60205261014060405f2060ff60018060a01b03825416916002600182015491015490604051938452602084015263ffffffff8116604084015261ffff8160201c166060840152818160301c166080840152818160381c1660a0840152818160401c1660c084015267ffffffffffffffff8160481c1660e084015267ffffffffffffffff8160881c1661010084015260c81c161515610120820152f35b5f80fd5b34610141575f366003190112610141576020600154604051908152f35b346101415761017036610d2c565b92969095919493335f525f60205260ff600260405f20015460c81c166104295763ffffffff16966064881161041a5761ffff1694600a861161041a5760ff16956001871161041a5760ff16926005841161041a5760ff16936064851161041a576101e5926101df913691610dec565b90610f8c565b9167ffffffffffffffff42169460405190610140820182811067ffffffffffffffff821117610406576040523382526020820192858452604083019489865260608401928884526080850190815260a0850191825260c0850192835260e08501938a85526101008601958b875261012081019760018952335f525f60205260405f2091600160a01b600190039051166bffffffffffffffffffffffff60a01b835416178255516001820155600201975163ffffffff1663ffffffff1663ffffffff198954161788555161ffff166102d590889065ffff0000000082549160201b169065ffff000000001916179055565b51865466ff000000000000191660309190911b66ff0000000000001617865551855460ff60381b191660389190911b60ff60381b1617855551845460ff60401b191660409190911b60ff60401b16178455518354915178ffffffffffffffffffffffffffffffff0000000000000000001990921670ffffffffffffffff00000000000000000060489290921b919091161760889190911b67ffffffffffffffff60881b1617825551815460ff60c81b191690151560c81b60ff60c81b1617905561039f338261114d565b306103a99161114d565b6001545f1981146103f257600101600155604051928352602083015260408201527f7701c8706cd7980a8ba2a98604cd738d2424199f4f2f5c8fe2eb9555accaf25e60603392a2005b634e487b7160e01b5f52601160045260245ffd5b634e487b7160e01b5f52604160045260245ffd5b63b4fa3fb360e01b5f5260045ffd5b6335a081ab60e11b5f5260045ffd5b34610141575f3660031901126101415760206040516127118152f35b346101415761046236610d2c565b9491909296939596335f525f60205260405f2090600282019860ff8a5460c81c16156105e357606463ffffffff8a161161041a57600a61ffff83161161041a57600160ff85161161041a57600560ff87161161041a57606460ff89161161041a5761058198610501600161052d956104eb6105679b6101df63ffffffff9761054d9c3691610dec565b91829101556104fa338261114d565b309061114d565b1663ffffffff198a5416178955889065ffff0000000082549160201b169065ffff000000001916179055565b865466ff000000000000191660309190911b66ff00000000000016178655565b845460ff60381b191660389190911b60ff60381b16178455565b825460ff60401b191660409190911b60ff60401b16178255565b805467ffffffffffffffff60881b191642608881901b67ffffffffffffffff60881b169190911790915567ffffffffffffffff166040519081527fcd5d131bbc6efef8b5b10c8b8e1d354979185520a0627169756983dd744f26bf60203392a2005b6369e0942b60e11b5f5260045ffd5b34610141576020366003190112610141576004356001600160a01b03811690819003610141575f525f602052600260405f20015460ff8160c81c16156105e35760e09067ffffffffffffffff6040519163ffffffff8116835261ffff8160201c16602084015260ff8160301c16604084015260ff8160381c16606084015260ff8160401c166080840152818160481c1660a084015260881c1660c0820152f35b34610141575f36600319011261014157335f525f60205260405f2060ff600282015460c81c16156105e35760016020910154604051908152f35b34610141576020366003190112610141576004356001600160a01b03811690819003610141575f525f602052602060ff600260405f20015460c81c166040519015158152f35b34610141575f36600319011261014157335f525f60205260405f20600281019060ff825460c81c16156105e35760010180545f5160206111cb5f395f51905f5254604051639cd07acb60e01b8152620f4240600482015292939291906001600160a01b0316826044815f602094600560248401525af1908115610b0b575f91610cf6575b6107a09250610e32565b82545f5160206111cb5f395f51905f5254604051639cd07acb60e01b8152620186a0600482015292939291906001600160a01b0316826044815f602094600560248401525af1908115610b0b575f91610cc0575b6107fe9250610e32565b92545f5160206111cb5f395f51905f5254604051639cd07acb60e01b8152612710600482015291906001600160a01b0316826044815f602094600560248401525af1908115610b0b575f91610c8a575b6108589250610e32565b905490600561ffff8360201c1610159182610c7a575b82610c6a575b82610c53575b506108926108a261089884956108926108a896610ee5565b90610f06565b9561089286610ee5565b93610ee5565b5f5160206111cb5f395f51905f5254604051639cd07acb60e01b8152600360048201529192906001600160a01b0316826044815f602094600260248401525af1918215610b0b575f92610c1f575b505f5160206111cb5f395f51905f5254604051639cd07acb60e01b81526002600482015291906001600160a01b0316826044815f602094600260248401525af1918215610b0b575f92610beb575b505f5160206111cb5f395f51905f5254604051639cd07acb60e01b815260016004820152906001600160a01b0316816044815f602094600260248401525af1908115610b0b575f91610bb9575b505f5160206111cb5f395f51905f5254604051639cd07acb60e01b81525f600482015295906001600160a01b0316866044815f602094600260248401525af1958615610b0b575f96610b82575b509060646020925f60018060a01b035f5160206111cb5f395f51905f525416604051998a958694637702dcff60e01b86526004860152602485015260448401525af1938415610b0b575f94610b4b575b509060646020925f60018060a01b035f5160206111cb5f395f51905f5254166040519788958694637702dcff60e01b86526004860152602485015260448401525af1918215610b0b575f92610b16575b506064602092935f60018060a01b035f5160206111cb5f395f51905f5254166040519687958694637702dcff60e01b86526004860152602485015260448401525af18015610b0b575f90610ad8575b602090604051908152f35b506020813d602011610b03575b81610af260209383610dca565b810103126101415760209051610acd565b3d9150610ae5565b6040513d5f823e3d90fd5b91506020823d602011610b43575b81610b3160209383610dca565b81010312610141579051906064610a7e565b3d9150610b24565b919093506020823d602011610b7a575b81610b6860209383610dca565b81010312610141579051926064610a2e565b3d9150610b5b565b919095506020823d602011610bb1575b81610b9f60209383610dca565b810103126101415790519460646109de565b3d9150610b92565b90506020813d602011610be3575b81610bd460209383610dca565b81010312610141575186610991565b3d9150610bc7565b9091506020813d602011610c17575b81610c0760209383610dca565b8101031261014157519085610944565b3d9150610bfa565b9091506020813d602011610c4b575b81610c3b60209383610dca565b81010312610141575190846108f6565b3d9150610c2e565b601e60409190911c60ff161115915061089261087a565b915060ff8260381c161591610874565b915060ff8260301c16159161086e565b90506020823d602011610cb8575b81610ca560209383610dca565b810103126101415761085891519061084e565b3d9150610c98565b90506020823d602011610cee575b81610cdb60209383610dca565b81010312610141576107fe9151906107f4565b3d9150610cce565b90506020823d602011610d24575b81610d1160209383610dca565b81010312610141576107a0915190610796565b3d9150610d04565b60e0600319820112610141576004359160243567ffffffffffffffff811161014157826023820112156101415780600401359267ffffffffffffffff8411610141576024848301011161014157602401919060443563ffffffff81168103610141579060643561ffff81168103610141579060843560ff81168103610141579060a43560ff81168103610141579060c43560ff811681036101415790565b90601f8019910116810190811067ffffffffffffffff82111761040657604052565b92919267ffffffffffffffff82116104065760405191610e16601f8201601f191660200184610dca565b829481845281830111610141578281602093845f960137010152565b908115610ed5575b8015610ec3575b602090606460018060a01b035f5160206111cb5f395f51905f525416935f6040519586948593631391547f60e01b8552600485015260248401528160448401525af1908115610b0b575f91610e94575090565b90506020813d602011610ebb575b81610eaf60209383610dca565b81010312610141575190565b3d9150610ea2565b506020610ece6110b1565b9050610e41565b9050610edf6110b1565b90610e3a565b15610efb57610ef860ff60015b166110ff565b90565b610ef860ff5f610ef2565b908115610f7b575b8015610f68575b602090606460018060a01b035f5160206111cb5f395f51905f525416935f604051958694859363d99882d560e01b8552600485015260248401528160448401525af1908115610b0b575f91610e94575090565b506020610f745f6110ff565b9050610f15565b9050610f865f6110ff565b90610f0e565b602091829160018060a01b035f5160206111cb5f395f51905f525416905f60a460405180978196829563196d0b9b60e01b84526004840152336024840152608060448401528051918291826084860152018484015e818101830184905260056064830152601f01601f191681010301925af1908115610b0b575f9161107f575b507f9e7b61f58c47dc699ac88507c4f5bb9f121c03808c5676a8078fe583e4649700546001600160a01b0316803b1561014157604051630f8e573b60e21b815260048101839052336024820152905f908290604490829084905af18015610b0b57611075575090565b5f610ef891610dca565b90506020813d6020116110a9575b8161109a60209383610dca565b8101031261014157515f61100c565b3d915061108d565b5f5160206111cb5f395f51905f5254604051639cd07acb60e01b81525f6004820152906001600160a01b0316816044815f602094600560248401525af1908115610b0b575f91610e94575090565b5f5160206111cb5f395f51905f5254604051639cd07acb60e01b815260048101929092526001600160a01b0316816044815f6020948160248401525af1908115610b0b575f91610e94575090565b7f9e7b61f58c47dc699ac88507c4f5bb9f121c03808c5676a8078fe583e4649700546001600160a01b031691823b1561014157604051635ca4b5b160e11b815260048101929092526001600160a01b03166024820152905f908290604490829084905af18015610b0b576111be5750565b5f6111c891610dca565b56fe9e7b61f58c47dc699ac88507c4f5bb9f121c03808c5676a8078fe583e4649701a2646970667358221220facafd1dde4e77962904d068a73be50777f60f16d305e3ab57f15488ab54cbdb64736f6c634300081c00339e7b61f58c47dc699ac88507c4f5bb9f121c03808c5676a8078fe583e46497039e7b61f58c47dc699ac88507c4f5bb9f121c03808c5676a8078fe583e46497019e7b61f58c47dc699ac88507c4f5bb9f121c03808c5676a8078fe583e46497029e7b61f58c47dc699ac88507c4f5bb9f121c03808c5676a8078fe583e4649700",
  "linkReferences": {},
  "deployedLinkReferences": {}
}